{
  "contractName": "ApartmentRental",
  "abi": [
    {
      "inputs": [
        {
          "internalType": "uint256",
          "name": "_rentAmount",
          "type": "uint256"
        },
        {
          "internalType": "uint256",
          "name": "_securityDeposit",
          "type": "uint256"
        },
        {
          "internalType": "uint256",
          "name": "_rentalPeriod",
          "type": "uint256"
        }
      ],
      "stateMutability": "nonpayable",
      "type": "constructor"
    },
    {
      "anonymous": false,
      "inputs": [
        {
          "indexed": true,
          "internalType": "address",
          "name": "tenant",
          "type": "address"
        },
        {
          "indexed": false,
          "internalType": "uint256",
          "name": "startTime",
          "type": "uint256"
        }
      ],
      "name": "ContractSigned",
      "type": "event"
    },
    {
      "anonymous": false,
      "inputs": [
        {
          "indexed": true,
          "internalType": "address",
          "name": "tenant",
          "type": "address"
        },
        {
          "indexed": false,
          "internalType": "uint256",
          "name": "refund",
          "type": "uint256"
        }
      ],
      "name": "ContractTerminated",
      "type": "event"
    },
    {
      "anonymous": false,
      "inputs": [
        {
          "indexed": true,
          "internalType": "address",
          "name": "landlord",
          "type": "address"
        },
        {
          "indexed": false,
          "internalType": "uint256",
          "name": "amount",
          "type": "uint256"
        }
      ],
      "name": "FundsWithdrawn",
      "type": "event"
    },
    {
      "anonymous": false,
      "inputs": [
        {
          "indexed": true,
          "internalType": "address",
          "name": "tenant",
          "type": "address"
        },
        {
          "indexed": false,
          "internalType": "uint256",
          "name": "amount",
          "type": "uint256"
        }
      ],
      "name": "RentPaid",
      "type": "event"
    },
    {
      "inputs": [],
      "name": "isActive",
      "outputs": [
        {
          "internalType": "bool",
          "name": "",
          "type": "bool"
        }
      ],
      "stateMutability": "view",
      "type": "function"
    },
    {
      "inputs": [],
      "name": "landlord",
      "outputs": [
        {
          "internalType": "address",
          "name": "",
          "type": "address"
        }
      ],
      "stateMutability": "view",
      "type": "function"
    },
    {
      "inputs": [],
      "name": "rentAmount",
      "outputs": [
        {
          "internalType": "uint256",
          "name": "",
          "type": "uint256"
        }
      ],
      "stateMutability": "view",
      "type": "function"
    },
    {
      "inputs": [],
      "name": "rentalPeriod",
      "outputs": [
        {
          "internalType": "uint256",
          "name": "",
          "type": "uint256"
        }
      ],
      "stateMutability": "view",
      "type": "function"
    },
    {
      "inputs": [],
      "name": "securityDeposit",
      "outputs": [
        {
          "internalType": "uint256",
          "name": "",
          "type": "uint256"
        }
      ],
      "stateMutability": "view",
      "type": "function"
    },
    {
      "inputs": [],
      "name": "startTime",
      "outputs": [
        {
          "internalType": "uint256",
          "name": "",
          "type": "uint256"
        }
      ],
      "stateMutability": "view",
      "type": "function"
    },
    {
      "inputs": [],
      "name": "tenant",
      "outputs": [
        {
          "internalType": "address",
          "name": "",
          "type": "address"
        }
      ],
      "stateMutability": "view",
      "type": "function"
    },
    {
      "inputs": [],
      "name": "signContract",
      "outputs": [],
      "stateMutability": "payable",
      "type": "function"
    },
    {
      "inputs": [],
      "name": "payRent",
      "outputs": [],
      "stateMutability": "payable",
      "type": "function"
    },
    {
      "inputs": [],
      "name": "withdrawFunds",
      "outputs": [],
      "stateMutability": "nonpayable",
      "type": "function"
    },
    {
      "inputs": [],
      "name": "terminateContract",
      "outputs": [],
      "stateMutability": "nonpayable",
      "type": "function"
    },
    {
      "inputs": [],
      "name": "getBalance",
      "outputs": [
        {
          "internalType": "uint256",
          "name": "",
          "type": "uint256"
        }
      ],
      "stateMutability": "view",
      "type": "function"
    },
    {
      "inputs": [],
      "name": "getRentAmount",
      "outputs": [
        {
          "internalType": "uint256",
          "name": "",
          "type": "uint256"
        }
      ],
      "stateMutability": "view",
      "type": "function"
    }
  ],
  "bytecode": "0x60806040523480156200001157600080fd5b50604051620010e0380380620010e08339818101604052810190620000379190620000f0565b336000806101000a81548173ffffffffffffffffffffffffffffffffffffffff021916908373ffffffffffffffffffffffffffffffffffffffff1602179055508260028190555081600381905550806004819055506000600660006101000a81548160ff0219169083151502179055505050506200014c565b600080fd5b6000819050919050565b620000ca81620000b5565b8114620000d657600080fd5b50565b600081519050620000ea81620000bf565b92915050565b6000806000606084860312156200010c576200010b620000b0565b5b60006200011c86828701620000d9565b93505060206200012f86828701620000d9565b92505060406200014286828701620000d9565b9150509250925092565b610f84806200015c6000396000f3fe6080604052600436106100c25760003560e01c806378e979251161007f578063adf0779111610059578063adf0779114610201578063b8b4f1a01461022c578063dc1997ea14610236578063f8ef1e1314610261576100c2565b806378e97925146101a15780638c4b8475146101cc578063a709c4fe146101f7576100c2565b80630295535f146100c757806312065fe0146100f2578063220e5ab31461011d57806322f3e2d41461014857806324600fc3146101735780632fd949ca1461018a575b600080fd5b3480156100d357600080fd5b506100dc61028c565b6040516100e991906109ed565b60405180910390f35b3480156100fe57600080fd5b50610107610296565b60405161011491906109ed565b60405180910390f35b34801561012957600080fd5b5061013261029e565b60405161013f91906109ed565b60405180910390f35b34801561015457600080fd5b5061015d6102a4565b60405161016a9190610a23565b60405180910390f35b34801561017f57600080fd5b506101886102b7565b005b34801561019657600080fd5b5061019f610465565b005b3480156101ad57600080fd5b506101b661069a565b6040516101c391906109ed565b60405180910390f35b3480156101d857600080fd5b506101e16106a0565b6040516101ee91906109ed565b60405180910390f35b6101ff6106a6565b005b34801561020d57600080fd5b50610216610819565b6040516102239190610a7f565b60405180910390f35b61023461083f565b005b34801561024257600080fd5b5061024b6109aa565b6040516102589190610a7f565b60405180910390f35b34801561026d57600080fd5b506102766109ce565b60405161028391906109ed565b60405180910390f35b6000600254905090565b600047905090565b60035481565b600660009054906101000a900460ff1681565b60008054906101000a900473ffffffffffffffffffffffffffffffffffffffff1673ffffffffffffffffffffffffffffffffffffffff163373ffffffffffffffffffffffffffffffffffffffff1614610345576040517f08c379a000000000000000000000000000000000000000000000000000000000815260040161033c90610b1d565b60405180910390fd5b60004790506000811161038d576040517f08c379a000000000000000000000000000000000000000000000000000000000815260040161038490610b89565b60405180910390fd5b60008054906101000a900473ffffffffffffffffffffffffffffffffffffffff1673ffffffffffffffffffffffffffffffffffffffff166108fc829081150290604051600060405180830381858888f193505050501580156103f3573d6000803e3d6000fd5b5060008054906101000a900473ffffffffffffffffffffffffffffffffffffffff1673ffffffffffffffffffffffffffffffffffffffff167feaff4b37086828766ad3268786972c0cd24259d4c87a80f9d3963a3c3d999b0d8260405161045a91906109ed565b60405180910390a250565b60008054906101000a900473ffffffffffffffffffffffffffffffffffffffff1673ffffffffffffffffffffffffffffffffffffffff163373ffffffffffffffffffffffffffffffffffffffff16146104f3576040517f08c379a00000000000000000000000000000000000000000000000000000000081526004016104ea90610b1d565b60405180910390fd5b600660009054906101000a900460ff16610542576040517f08c379a000000000000000000000000000000000000000000000000000000000815260040161053990610bf5565b60405180910390fd5b6004546005546105529190610c44565b421015610594576040517f08c379a000000000000000000000000000000000000000000000000000000000815260040161058b90610d0c565b60405180910390fd5b6000600660006101000a81548160ff021916908315150217905550600060035490506000600381905550600160009054906101000a900473ffffffffffffffffffffffffffffffffffffffff1673ffffffffffffffffffffffffffffffffffffffff166108fc829081150290604051600060405180830381858888f19350505050158015610626573d6000803e3d6000fd5b50600160009054906101000a900473ffffffffffffffffffffffffffffffffffffffff1673ffffffffffffffffffffffffffffffffffffffff167fba36d48d5e2af1c2202792650569d0552753a23d7f2d738bba47ce4100b80b798260405161068f91906109ed565b60405180910390a250565b60055481565b60045481565b600160009054906101000a900473ffffffffffffffffffffffffffffffffffffffff1673ffffffffffffffffffffffffffffffffffffffff163373ffffffffffffffffffffffffffffffffffffffff1614610736576040517f08c379a000000000000000000000000000000000000000000000000000000000815260040161072d90610d9e565b60405180910390fd5b600660009054906101000a900460ff16610785576040517f08c379a000000000000000000000000000000000000000000000000000000000815260040161077c90610bf5565b60405180910390fd5b60025434146107c9576040517f08c379a00000000000000000000000000000000000000000000000000000000081526004016107c090610e30565b60405180910390fd5b3373ffffffffffffffffffffffffffffffffffffffff167f03b5033869479e8a98af42b272f05933f60489fe9fb43d63e11a6c31f3fa74743460405161080f91906109ed565b60405180910390a2565b600160009054906101000a900473ffffffffffffffffffffffffffffffffffffffff1681565b600660009054906101000a900460ff161561088f576040517f08c379a000000000000000000000000000000000000000000000000000000000815260040161088690610e9c565b60405180910390fd5b60035434146108d3576040517f08c379a00000000000000000000000000000000000000000000000000000000081526004016108ca90610f2e565b60405180910390fd5b33600160006101000a81548173ffffffffffffffffffffffffffffffffffffffff021916908373ffffffffffffffffffffffffffffffffffffffff160217905550426005819055506001600660006101000a81548160ff021916908315150217905550600160009054906101000a900473ffffffffffffffffffffffffffffffffffffffff1673ffffffffffffffffffffffffffffffffffffffff167fa8cc9409769b9614f3ae4056957bfbb32d986e4b61c886b5e29b324b5bf92d0a6005546040516109a091906109ed565b60405180910390a2565b60008054906101000a900473ffffffffffffffffffffffffffffffffffffffff1681565b60025481565b6000819050919050565b6109e7816109d4565b82525050565b6000602082019050610a0260008301846109de565b92915050565b60008115159050919050565b610a1d81610a08565b82525050565b6000602082019050610a386000830184610a14565b92915050565b600073ffffffffffffffffffffffffffffffffffffffff82169050919050565b6000610a6982610a3e565b9050919050565b610a7981610a5e565b82525050565b6000602082019050610a946000830184610a70565b92915050565b600082825260208201905092915050565b7f536f6c6f20656c2070726f706965746172696f207075656465207265616c697a60008201527f6172206573746120616363696f6e000000000000000000000000000000000000602082015250565b6000610b07602e83610a9a565b9150610b1282610aab565b604082019050919050565b60006020820190508181036000830152610b3681610afa565b9050919050565b7f4e6f2068617920666f6e646f7320706172612072657469726172000000000000600082015250565b6000610b73601a83610a9a565b9150610b7e82610b3d565b602082019050919050565b60006020820190508181036000830152610ba281610b66565b9050919050565b7f456c20636f6e747261746f206e6f20657374612061637469766f000000000000600082015250565b6000610bdf601a83610a9a565b9150610bea82610ba9565b602082019050919050565b60006020820190508181036000830152610c0e81610bd2565b9050919050565b7f4e487b7100000000000000000000000000000000000000000000000000000000600052601160045260246000fd5b6000610c4f826109d4565b9150610c5a836109d4565b9250827fffffffffffffffffffffffffffffffffffffffffffffffffffffffffffffffff03821115610c8f57610c8e610c15565b5b828201905092915050565b7f456c20706572696f646f20646520616c7175696c6572206e6f2068612074657260008201527f6d696e61646f0000000000000000000000000000000000000000000000000000602082015250565b6000610cf6602683610a9a565b9150610d0182610c9a565b604082019050919050565b60006020820190508181036000830152610d2581610ce9565b9050919050565b7f536f6c6f20656c20696e7175696c696e6f207075656465207265616c697a617260008201527f206573746120616363696f6e0000000000000000000000000000000000000000602082015250565b6000610d88602c83610a9a565b9150610d9382610d2c565b604082019050919050565b60006020820190508181036000830152610db781610d7b565b9050919050565b7f4d6f6e746f2064652072656e746120696e636f72726563746f2e20446562657360008201527f20656e7669617220656c206d6f6e746f2065786163746f20656e207765692e00602082015250565b6000610e1a603f83610a9a565b9150610e2582610dbe565b604082019050919050565b60006020820190508181036000830152610e4981610e0d565b9050919050565b7f456c20636f6e747261746f20796120657374612061637469766f000000000000600082015250565b6000610e86601a83610a9a565b9150610e9182610e50565b602082019050919050565b60006020820190508181036000830152610eb581610e79565b9050919050565b7f536520726571756965726520656c206465706f7369746f20646520736567757260008201527f6964616400000000000000000000000000000000000000000000000000000000602082015250565b6000610f18602483610a9a565b9150610f2382610ebc565b604082019050919050565b60006020820190508181036000830152610f4781610f0b565b905091905056fea26469706673582212201b1e3bfb4d1f434b81f96cf56c0b6bc8922d50be4fcffb304dc48f376c180d8864736f6c634300080d0033",
  "immutableReferences": {},
  "source": "// SPDX-License-Identifier: MIT\r\npragma solidity ^0.8.0;\r\n\r\ncontract ApartmentRental {\r\n    address public landlord;\r\n    address public tenant;\r\n    uint256 public rentAmount; // Monto de la renta mensual en wei\r\n    uint256 public securityDeposit;\r\n    uint256 public rentalPeriod;\r\n    uint256 public startTime;\r\n    bool public isActive;\r\n\r\n    event ContractSigned(address indexed tenant, uint256 startTime);\r\n    event RentPaid(address indexed tenant, uint256 amount);\r\n    event FundsWithdrawn(address indexed landlord, uint256 amount);\r\n    event ContractTerminated(address indexed tenant, uint256 refund);\r\n\r\n    modifier onlyLandlord() {\r\n        require(\r\n            msg.sender == landlord,\r\n            \"Solo el propietario puede realizar esta accion\"\r\n        );\r\n        _;\r\n    }\r\n\r\n    modifier onlyTenant() {\r\n        require(\r\n            msg.sender == tenant,\r\n            \"Solo el inquilino puede realizar esta accion\"\r\n        );\r\n        _;\r\n    }\r\n\r\n    constructor(\r\n        uint256 _rentAmount,\r\n        uint256 _securityDeposit,\r\n        uint256 _rentalPeriod\r\n    ) {\r\n        landlord = msg.sender;\r\n        rentAmount = _rentAmount;\r\n        securityDeposit = _securityDeposit;\r\n        rentalPeriod = _rentalPeriod;\r\n        isActive = false;\r\n    }\r\n\r\n    function signContract() external payable {\r\n        require(!isActive, \"El contrato ya esta activo\");\r\n        require(\r\n            msg.value == securityDeposit,\r\n            \"Se requiere el deposito de seguridad\"\r\n        );\r\n\r\n        tenant = msg.sender;\r\n        startTime = block.timestamp;\r\n        isActive = true;\r\n\r\n        emit ContractSigned(tenant, startTime);\r\n    }\r\n\r\n    //  CORRECCIN AQU\r\n    function payRent() external payable onlyTenant {\r\n        require(isActive, \"El contrato no esta activo\");\r\n        require(\r\n            msg.value == rentAmount,\r\n            \"Monto de renta incorrecto. Debes enviar el monto exacto en wei.\"\r\n        );\r\n\r\n        emit RentPaid(msg.sender, msg.value);\r\n    }\r\n\r\n    function withdrawFunds() external onlyLandlord {\r\n        uint256 balance = address(this).balance;\r\n        require(balance > 0, \"No hay fondos para retirar\");\r\n\r\n        payable(landlord).transfer(balance);\r\n\r\n        emit FundsWithdrawn(landlord, balance);\r\n    }\r\n\r\n    function terminateContract() external onlyLandlord {\r\n        require(isActive, \"El contrato no esta activo\");\r\n        require(\r\n            block.timestamp >= startTime + rentalPeriod,\r\n            \"El periodo de alquiler no ha terminado\"\r\n        );\r\n\r\n        isActive = false;\r\n\r\n        uint256 refund = securityDeposit;\r\n        securityDeposit = 0;\r\n\r\n        payable(tenant).transfer(refund);\r\n\r\n        emit ContractTerminated(tenant, refund);\r\n    }\r\n\r\n    function getBalance() external view returns (uint256) {\r\n        return address(this).balance;\r\n    }\r\n\r\n    //  NUEVA FUNCIN PARA VALIDAR EL MONTO DE RENTA\r\n    function getRentAmount() external view returns (uint256) {\r\n        return rentAmount;\r\n    }\r\n}\r\n",
  "sourcePath": "C:\\Users\\Janus\\Documents\\Proyectos\\test-trruffle\\contracts\\RentalContract.sol",
  "compiler": {
    "name": "solc",
    "version": "0.8.13+commit.abaa5c0e.Emscripten.clang"
  },
  "schemaVersion": "3.4.16",
  "updatedAt": "2025-03-28T21:44:03.436Z",
  "devdoc": {
    "kind": "dev",
    "methods": {},
    "version": 1
  },
  "userdoc": {
    "kind": "user",
    "methods": {},
    "version": 1
  }
}